{
  "contractName": "LittleHorse",
  "abi": [
    {
      "inputs": [],
      "stateMutability": "nonpayable",
      "type": "constructor"
    },
    {
      "anonymous": false,
      "inputs": [
        {
          "indexed": true,
          "internalType": "address",
          "name": "owner",
          "type": "address"
        },
        {
          "indexed": true,
          "internalType": "address",
          "name": "approved",
          "type": "address"
        },
        {
          "indexed": true,
          "internalType": "uint256",
          "name": "tokenId",
          "type": "uint256"
        }
      ],
      "name": "Approval",
      "type": "event"
    },
    {
      "anonymous": false,
      "inputs": [
        {
          "indexed": true,
          "internalType": "address",
          "name": "owner",
          "type": "address"
        },
        {
          "indexed": true,
          "internalType": "address",
          "name": "operator",
          "type": "address"
        },
        {
          "indexed": false,
          "internalType": "bool",
          "name": "approved",
          "type": "bool"
        }
      ],
      "name": "ApprovalForAll",
      "type": "event"
    },
    {
      "anonymous": false,
      "inputs": [
        {
          "indexed": true,
          "internalType": "address",
          "name": "previousOwner",
          "type": "address"
        },
        {
          "indexed": true,
          "internalType": "address",
          "name": "newOwner",
          "type": "address"
        }
      ],
      "name": "OwnershipTransferred",
      "type": "event"
    },
    {
      "anonymous": false,
      "inputs": [
        {
          "indexed": true,
          "internalType": "address",
          "name": "from",
          "type": "address"
        },
        {
          "indexed": true,
          "internalType": "address",
          "name": "to",
          "type": "address"
        },
        {
          "indexed": true,
          "internalType": "uint256",
          "name": "tokenId",
          "type": "uint256"
        }
      ],
      "name": "Transfer",
      "type": "event"
    },
    {
      "inputs": [],
      "name": "MAX_MINT_PER_TX",
      "outputs": [
        {
          "internalType": "uint256",
          "name": "",
          "type": "uint256"
        }
      ],
      "stateMutability": "view",
      "type": "function",
      "constant": true
    },
    {
      "inputs": [],
      "name": "MAX_PRESALE_SUPPLY",
      "outputs": [
        {
          "internalType": "uint256",
          "name": "",
          "type": "uint256"
        }
      ],
      "stateMutability": "view",
      "type": "function",
      "constant": true
    },
    {
      "inputs": [],
      "name": "MAX_SUPPLY",
      "outputs": [
        {
          "internalType": "uint256",
          "name": "",
          "type": "uint256"
        }
      ],
      "stateMutability": "view",
      "type": "function",
      "constant": true
    },
    {
      "inputs": [],
      "name": "a1",
      "outputs": [
        {
          "internalType": "address",
          "name": "",
          "type": "address"
        }
      ],
      "stateMutability": "view",
      "type": "function",
      "constant": true
    },
    {
      "inputs": [
        {
          "internalType": "address",
          "name": "to",
          "type": "address"
        },
        {
          "internalType": "uint256",
          "name": "tokenId",
          "type": "uint256"
        }
      ],
      "name": "approve",
      "outputs": [],
      "stateMutability": "nonpayable",
      "type": "function"
    },
    {
      "inputs": [
        {
          "internalType": "address",
          "name": "owner",
          "type": "address"
        }
      ],
      "name": "balanceOf",
      "outputs": [
        {
          "internalType": "uint256",
          "name": "",
          "type": "uint256"
        }
      ],
      "stateMutability": "view",
      "type": "function",
      "constant": true
    },
    {
      "inputs": [],
      "name": "baseTokenURI",
      "outputs": [
        {
          "internalType": "string",
          "name": "",
          "type": "string"
        }
      ],
      "stateMutability": "view",
      "type": "function",
      "constant": true
    },
    {
      "inputs": [
        {
          "internalType": "uint256",
          "name": "tokenId",
          "type": "uint256"
        }
      ],
      "name": "getApproved",
      "outputs": [
        {
          "internalType": "address",
          "name": "",
          "type": "address"
        }
      ],
      "stateMutability": "view",
      "type": "function",
      "constant": true
    },
    {
      "inputs": [],
      "name": "initial_price",
      "outputs": [
        {
          "internalType": "uint256",
          "name": "",
          "type": "uint256"
        }
      ],
      "stateMutability": "view",
      "type": "function",
      "constant": true
    },
    {
      "inputs": [
        {
          "internalType": "address",
          "name": "owner",
          "type": "address"
        },
        {
          "internalType": "address",
          "name": "operator",
          "type": "address"
        }
      ],
      "name": "isApprovedForAll",
      "outputs": [
        {
          "internalType": "bool",
          "name": "",
          "type": "bool"
        }
      ],
      "stateMutability": "view",
      "type": "function",
      "constant": true
    },
    {
      "inputs": [],
      "name": "name",
      "outputs": [
        {
          "internalType": "string",
          "name": "",
          "type": "string"
        }
      ],
      "stateMutability": "view",
      "type": "function",
      "constant": true
    },
    {
      "inputs": [],
      "name": "owner",
      "outputs": [
        {
          "internalType": "address",
          "name": "",
          "type": "address"
        }
      ],
      "stateMutability": "view",
      "type": "function",
      "constant": true
    },
    {
      "inputs": [
        {
          "internalType": "uint256",
          "name": "tokenId",
          "type": "uint256"
        }
      ],
      "name": "ownerOf",
      "outputs": [
        {
          "internalType": "address",
          "name": "",
          "type": "address"
        }
      ],
      "stateMutability": "view",
      "type": "function",
      "constant": true
    },
    {
      "inputs": [],
      "name": "presaleActive",
      "outputs": [
        {
          "internalType": "bool",
          "name": "",
          "type": "bool"
        }
      ],
      "stateMutability": "view",
      "type": "function",
      "constant": true
    },
    {
      "inputs": [],
      "name": "price",
      "outputs": [
        {
          "internalType": "uint256",
          "name": "",
          "type": "uint256"
        }
      ],
      "stateMutability": "view",
      "type": "function",
      "constant": true
    },
    {
      "inputs": [],
      "name": "renounceOwnership",
      "outputs": [],
      "stateMutability": "nonpayable",
      "type": "function"
    },
    {
      "inputs": [],
      "name": "reserved",
      "outputs": [
        {
          "internalType": "uint256",
          "name": "",
          "type": "uint256"
        }
      ],
      "stateMutability": "view",
      "type": "function",
      "constant": true
    },
    {
      "inputs": [
        {
          "internalType": "address",
          "name": "from",
          "type": "address"
        },
        {
          "internalType": "address",
          "name": "to",
          "type": "address"
        },
        {
          "internalType": "uint256",
          "name": "tokenId",
          "type": "uint256"
        }
      ],
      "name": "safeTransferFrom",
      "outputs": [],
      "stateMutability": "nonpayable",
      "type": "function"
    },
    {
      "inputs": [
        {
          "internalType": "address",
          "name": "from",
          "type": "address"
        },
        {
          "internalType": "address",
          "name": "to",
          "type": "address"
        },
        {
          "internalType": "uint256",
          "name": "tokenId",
          "type": "uint256"
        },
        {
          "internalType": "bytes",
          "name": "_data",
          "type": "bytes"
        }
      ],
      "name": "safeTransferFrom",
      "outputs": [],
      "stateMutability": "nonpayable",
      "type": "function"
    },
    {
      "inputs": [],
      "name": "saleActive",
      "outputs": [
        {
          "internalType": "bool",
          "name": "",
          "type": "bool"
        }
      ],
      "stateMutability": "view",
      "type": "function",
      "constant": true
    },
    {
      "inputs": [
        {
          "internalType": "address",
          "name": "operator",
          "type": "address"
        },
        {
          "internalType": "bool",
          "name": "approved",
          "type": "bool"
        }
      ],
      "name": "setApprovalForAll",
      "outputs": [],
      "stateMutability": "nonpayable",
      "type": "function"
    },
    {
      "inputs": [
        {
          "internalType": "bytes4",
          "name": "interfaceId",
          "type": "bytes4"
        }
      ],
      "name": "supportsInterface",
      "outputs": [
        {
          "internalType": "bool",
          "name": "",
          "type": "bool"
        }
      ],
      "stateMutability": "view",
      "type": "function",
      "constant": true
    },
    {
      "inputs": [],
      "name": "symbol",
      "outputs": [
        {
          "internalType": "string",
          "name": "",
          "type": "string"
        }
      ],
      "stateMutability": "view",
      "type": "function",
      "constant": true
    },
    {
      "inputs": [
        {
          "internalType": "uint256",
          "name": "index",
          "type": "uint256"
        }
      ],
      "name": "tokenByIndex",
      "outputs": [
        {
          "internalType": "uint256",
          "name": "",
          "type": "uint256"
        }
      ],
      "stateMutability": "view",
      "type": "function",
      "constant": true
    },
    {
      "inputs": [
        {
          "internalType": "address",
          "name": "owner",
          "type": "address"
        },
        {
          "internalType": "uint256",
          "name": "index",
          "type": "uint256"
        }
      ],
      "name": "tokenOfOwnerByIndex",
      "outputs": [
        {
          "internalType": "uint256",
          "name": "",
          "type": "uint256"
        }
      ],
      "stateMutability": "view",
      "type": "function",
      "constant": true
    },
    {
      "inputs": [
        {
          "internalType": "uint256",
          "name": "tokenId",
          "type": "uint256"
        }
      ],
      "name": "tokenURI",
      "outputs": [
        {
          "internalType": "string",
          "name": "",
          "type": "string"
        }
      ],
      "stateMutability": "view",
      "type": "function",
      "constant": true
    },
    {
      "inputs": [],
      "name": "totalSupply",
      "outputs": [
        {
          "internalType": "uint256",
          "name": "",
          "type": "uint256"
        }
      ],
      "stateMutability": "view",
      "type": "function",
      "constant": true
    },
    {
      "inputs": [
        {
          "internalType": "address",
          "name": "from",
          "type": "address"
        },
        {
          "internalType": "address",
          "name": "to",
          "type": "address"
        },
        {
          "internalType": "uint256",
          "name": "tokenId",
          "type": "uint256"
        }
      ],
      "name": "transferFrom",
      "outputs": [],
      "stateMutability": "nonpayable",
      "type": "function"
    },
    {
      "inputs": [
        {
          "internalType": "address",
          "name": "newOwner",
          "type": "address"
        }
      ],
      "name": "transferOwnership",
      "outputs": [],
      "stateMutability": "nonpayable",
      "type": "function"
    },
    {
      "inputs": [],
      "name": "whitelistActive",
      "outputs": [
        {
          "internalType": "bool",
          "name": "",
          "type": "bool"
        }
      ],
      "stateMutability": "view",
      "type": "function",
      "constant": true
    },
    {
      "inputs": [
        {
          "internalType": "address",
          "name": "",
          "type": "address"
        }
      ],
      "name": "whitelistReserved",
      "outputs": [
        {
          "internalType": "uint256",
          "name": "",
          "type": "uint256"
        }
      ],
      "stateMutability": "view",
      "type": "function",
      "constant": true
    },
    {
      "inputs": [
        {
          "internalType": "address",
          "name": "addr",
          "type": "address"
        }
      ],
      "name": "tokensOfOwner",
      "outputs": [
        {
          "internalType": "uint256[]",
          "name": "",
          "type": "uint256[]"
        }
      ],
      "stateMutability": "view",
      "type": "function",
      "constant": true
    },
    {
      "inputs": [
        {
          "internalType": "uint256",
          "name": "_amount",
          "type": "uint256"
        }
      ],
      "name": "mintWhitelist",
      "outputs": [],
      "stateMutability": "payable",
      "type": "function",
      "payable": true
    },
    {
      "inputs": [
        {
          "internalType": "uint256",
          "name": "_amount",
          "type": "uint256"
        }
      ],
      "name": "mintPresale",
      "outputs": [],
      "stateMutability": "payable",
      "type": "function",
      "payable": true
    },
    {
      "inputs": [
        {
          "internalType": "uint256",
          "name": "_amount",
          "type": "uint256"
        }
      ],
      "name": "mintToken",
      "outputs": [],
      "stateMutability": "payable",
      "type": "function",
      "payable": true
    },
    {
      "inputs": [
        {
          "internalType": "uint256",
          "name": "_amount",
          "type": "uint256"
        }
      ],
      "name": "mintReserved",
      "outputs": [],
      "stateMutability": "nonpayable",
      "type": "function"
    },
    {
      "inputs": [
        {
          "internalType": "address[]",
          "name": "_a",
          "type": "address[]"
        },
        {
          "internalType": "uint256[]",
          "name": "_amount",
          "type": "uint256[]"
        }
      ],
      "name": "editWhitelistReserved",
      "outputs": [],
      "stateMutability": "nonpayable",
      "type": "function"
    },
    {
      "inputs": [
        {
          "internalType": "bool",
          "name": "val",
          "type": "bool"
        }
      ],
      "name": "setWhitelistActive",
      "outputs": [],
      "stateMutability": "nonpayable",
      "type": "function"
    },
    {
      "inputs": [
        {
          "internalType": "bool",
          "name": "val",
          "type": "bool"
        }
      ],
      "name": "setPresaleActive",
      "outputs": [],
      "stateMutability": "nonpayable",
      "type": "function"
    },
    {
      "inputs": [
        {
          "internalType": "bool",
          "name": "val",
          "type": "bool"
        }
      ],
      "name": "setSaleActive",
      "outputs": [],
      "stateMutability": "nonpayable",
      "type": "function"
    },
    {
      "inputs": [
        {
          "internalType": "string",
          "name": "baseURI",
          "type": "string"
        }
      ],
      "name": "setBaseURI",
      "outputs": [],
      "stateMutability": "nonpayable",
      "type": "function"
    },
    {
      "inputs": [
        {
          "internalType": "uint256",
          "name": "newPrice",
          "type": "uint256"
        }
      ],
      "name": "setPrice",
      "outputs": [],
      "stateMutability": "nonpayable",
      "type": "function"
    },
    {
      "inputs": [
        {
          "internalType": "address[]",
          "name": "_a",
          "type": "address[]"
        }
      ],
      "name": "setAddresses",
      "outputs": [],
      "stateMutability": "nonpayable",
      "type": "function"
    },
    {
      "inputs": [
        {
          "internalType": "uint256",
          "name": "amount",
          "type": "uint256"
        }
      ],
      "name": "withdrawTeam",
      "outputs": [],
      "stateMutability": "payable",
      "type": "function",
      "payable": true
    }
  ],
  "bytecode": "0x60806040526000600a60146101000a81548160ff0219169083151502179055506000600a60156101000a81548160ff0219169083151502179055506000600a60166101000a81548160ff0219169083151502179055506005600b5566071afd498d0000600c556040518060400160405280601581526020017f687474703a2f2f3135392e36352e3233322e32372f0000000000000000000000815250600e9080519060200190620000b29291906200025e565b50348015620000c057600080fd5b506040518060400160405280600f81526020017f4c6974746c6520486f72736520563200000000000000000000000000000000008152506040518060400160405280600581526020017f4c494c48760000000000000000000000000000000000000000000000000000008152508160009080519060200190620001459291906200025e565b5080600190805190602001906200015e9291906200025e565b50505062000181620001756200019060201b60201c565b6200019860201b60201c565b600c54600d8190555062000373565b600033905090565b6000600a60009054906101000a900473ffffffffffffffffffffffffffffffffffffffff16905081600a60006101000a81548173ffffffffffffffffffffffffffffffffffffffff021916908373ffffffffffffffffffffffffffffffffffffffff1602179055508173ffffffffffffffffffffffffffffffffffffffff168173ffffffffffffffffffffffffffffffffffffffff167f8be0079c531659141344cd1fd0a4f28419497f9722a3daafe3b4186f6b6457e060405160405180910390a35050565b8280546200026c906200033d565b90600052602060002090601f016020900481019282620002905760008555620002dc565b82601f10620002ab57805160ff1916838001178555620002dc565b82800160010185558215620002dc579182015b82811115620002db578251825591602001919060010190620002be565b5b509050620002eb9190620002ef565b5090565b5b808211156200030a576000816000905550600101620002f0565b5090565b7f4e487b7100000000000000000000000000000000000000000000000000000000600052602260045260246000fd5b600060028204905060018216806200035657607f821691505b602082108114156200036d576200036c6200030e565b5b50919050565b61506480620003836000396000f3fe6080604052600436106102675760003560e01c8063841718a611610144578063b9571721116100b6578063e985e9c51161007a578063e985e9c514610926578063f14c0bcc14610963578063f2fde38b1461098c578063f759867a146109b5578063fd2b0492146109d1578063fe60d12c146109ed57610267565b8063b957172114610850578063c3b754dc14610879578063c634d032146108a2578063c87b56dd146108be578063d547cfb7146108fb57610267565b806395d89b411161010857806395d89b41146107545780639a5d140b1461077f578063a035b1fe146107a8578063a22cb465146107d3578063ab3f5a1a146107fc578063b88d4fde1461082757610267565b8063841718a61461066f5780638462151c146106985780638da5cb5b146106d55780638ecad7211461070057806391b7f5ed1461072b57610267565b806342842e0e116101dd5780636352211e116101a15780636352211e1461054b57806368428a1b146105885780636b8dc355146105b357806370a08231146105de578063715018a61461061b57806372e3a3eb1461063257610267565b806342842e0e146104755780634618163e1461049e5780634f6ccce7146104ba57806353135ca0146104f757806355f804b31461052257610267565b8063119552a11161022f578063119552a11461036557806318160ddd1461039057806323b872dd146103bb5780632f745c59146103e457806332cb6b0c146104215780633f8121a21461044c57610267565b806301ffc9a71461026c57806302ce5813146102a957806306fdde03146102d4578063081812fc146102ff578063095ea7b31461033c575b600080fd5b34801561027857600080fd5b50610293600480360381019061028e9190613527565b610a18565b6040516102a0919061356f565b60405180910390f35b3480156102b557600080fd5b506102be610a92565b6040516102cb919061356f565b60405180910390f35b3480156102e057600080fd5b506102e9610aa5565b6040516102f69190613623565b60405180910390f35b34801561030b57600080fd5b506103266004803603810190610321919061367b565b610b37565b60405161033391906136e9565b60405180910390f35b34801561034857600080fd5b50610363600480360381019061035e9190613730565b610bbc565b005b34801561037157600080fd5b5061037a610cd4565b60405161038791906136e9565b60405180910390f35b34801561039c57600080fd5b506103a5610cfa565b6040516103b2919061377f565b60405180910390f35b3480156103c757600080fd5b506103e260048036038101906103dd919061379a565b610d07565b005b3480156103f057600080fd5b5061040b60048036038101906104069190613730565b610d67565b604051610418919061377f565b60405180910390f35b34801561042d57600080fd5b50610436610e0c565b604051610443919061377f565b60405180910390f35b34801561045857600080fd5b50610473600480360381019061046e9190613819565b610e11565b005b34801561048157600080fd5b5061049c6004803603810190610497919061379a565b610eaa565b005b6104b860048036038101906104b3919061367b565b610eca565b005b3480156104c657600080fd5b506104e160048036038101906104dc919061367b565b611115565b6040516104ee919061377f565b60405180910390f35b34801561050357600080fd5b5061050c611186565b604051610519919061356f565b60405180910390f35b34801561052e57600080fd5b506105496004803603810190610544919061397b565b611199565b005b34801561055757600080fd5b50610572600480360381019061056d919061367b565b61122f565b60405161057f91906136e9565b60405180910390f35b34801561059457600080fd5b5061059d6112e1565b6040516105aa919061356f565b60405180910390f35b3480156105bf57600080fd5b506105c86112f4565b6040516105d5919061377f565b60405180910390f35b3480156105ea57600080fd5b50610605600480360381019061060091906139c4565b6112f9565b604051610612919061377f565b60405180910390f35b34801561062757600080fd5b506106306113b1565b005b34801561063e57600080fd5b50610659600480360381019061065491906139c4565b611439565b604051610666919061377f565b60405180910390f35b34801561067b57600080fd5b5061069660048036038101906106919190613819565b611451565b005b3480156106a457600080fd5b506106bf60048036038101906106ba91906139c4565b6114ea565b6040516106cc9190613aaf565b60405180910390f35b3480156106e157600080fd5b506106ea611598565b6040516106f791906136e9565b60405180910390f35b34801561070c57600080fd5b506107156115c2565b604051610722919061377f565b60405180910390f35b34801561073757600080fd5b50610752600480360381019061074d919061367b565b6115c7565b005b34801561076057600080fd5b5061076961164d565b6040516107769190613623565b60405180910390f35b34801561078b57600080fd5b506107a660048036038101906107a1919061367b565b6116df565b005b3480156107b457600080fd5b506107bd6117fd565b6040516107ca919061377f565b60405180910390f35b3480156107df57600080fd5b506107fa60048036038101906107f59190613ad1565b611803565b005b34801561080857600080fd5b50610811611819565b60405161081e919061377f565b60405180910390f35b34801561083357600080fd5b5061084e60048036038101906108499190613bb2565b61181f565b005b34801561085c57600080fd5b5061087760048036038101906108729190613cfd565b611881565b005b34801561088557600080fd5b506108a0600480360381019061089b9190613819565b61195c565b005b6108bc60048036038101906108b7919061367b565b6119f5565b005b3480156108ca57600080fd5b506108e560048036038101906108e0919061367b565b611b76565b6040516108f29190613623565b60405180910390f35b34801561090757600080fd5b50610910611c1d565b60405161091d9190613623565b60405180910390f35b34801561093257600080fd5b5061094d60048036038101906109489190613d46565b611cab565b60405161095a919061356f565b60405180910390f35b34801561096f57600080fd5b5061098a60048036038101906109859190613e49565b611d3f565b005b34801561099857600080fd5b506109b360048036038101906109ae91906139c4565b611e57565b005b6109cf60048036038101906109ca919061367b565b611f4f565b005b6109eb60048036038101906109e6919061367b565b6120d0565b005b3480156109f957600080fd5b50610a026121cd565b604051610a0f919061377f565b60405180910390f35b60007f780e9d63000000000000000000000000000000000000000000000000000000007bffffffffffffffffffffffffffffffffffffffffffffffffffffffff1916827bffffffffffffffffffffffffffffffffffffffffffffffffffffffff19161480610a8b5750610a8a826121d3565b5b9050919050565b600a60149054906101000a900460ff1681565b606060008054610ab490613ef0565b80601f0160208091040260200160405190810160405280929190818152602001828054610ae090613ef0565b8015610b2d5780601f10610b0257610100808354040283529160200191610b2d565b820191906000526020600020905b815481529060010190602001808311610b1057829003601f168201915b5050505050905090565b6000610b42826122b5565b610b81576040517f08c379a0000000000000000000000000000000000000000000000000000000008152600401610b7890613f94565b60405180910390fd5b6004600083815260200190815260200160002060009054906101000a900473ffffffffffffffffffffffffffffffffffffffff169050919050565b6000610bc78261122f565b90508073ffffffffffffffffffffffffffffffffffffffff168373ffffffffffffffffffffffffffffffffffffffff161415610c38576040517f08c379a0000000000000000000000000000000000000000000000000000000008152600401610c2f90614026565b60405180910390fd5b8073ffffffffffffffffffffffffffffffffffffffff16610c57612321565b73ffffffffffffffffffffffffffffffffffffffff161480610c865750610c8581610c80612321565b611cab565b5b610cc5576040517f08c379a0000000000000000000000000000000000000000000000000000000008152600401610cbc906140b8565b60405180910390fd5b610ccf8383612329565b505050565b600f60009054906101000a900473ffffffffffffffffffffffffffffffffffffffff1681565b6000600880549050905090565b610d18610d12612321565b826123e2565b610d57576040517f08c379a0000000000000000000000000000000000000000000000000000000008152600401610d4e9061414a565b60405180910390fd5b610d628383836124c0565b505050565b6000610d72836112f9565b8210610db3576040517f08c379a0000000000000000000000000000000000000000000000000000000008152600401610daa906141dc565b60405180910390fd5b600660008473ffffffffffffffffffffffffffffffffffffffff1673ffffffffffffffffffffffffffffffffffffffff168152602001908152602001600020600083815260200190815260200160002054905092915050565b601481565b610e19612321565b73ffffffffffffffffffffffffffffffffffffffff16610e37611598565b73ffffffffffffffffffffffffffffffffffffffff1614610e8d576040517f08c379a0000000000000000000000000000000000000000000000000000000008152600401610e8490614248565b60405180910390fd5b80600a60156101000a81548160ff02191690831515021790555050565b610ec58383836040518060200160405280600081525061181f565b505050565b6000610ed4610cfa565b90506000601060003373ffffffffffffffffffffffffffffffffffffffff1673ffffffffffffffffffffffffffffffffffffffff168152602001908152602001600020549050600a60149054906101000a900460ff16610f69576040517f08c379a0000000000000000000000000000000000000000000000000000000008152600401610f60906142b4565b60405180910390fd5b60008111610fac576040517f08c379a0000000000000000000000000000000000000000000000000000000008152600401610fa390614346565b60405180910390fd5b80831115610fef576040517f08c379a0000000000000000000000000000000000000000000000000000000008152600401610fe6906143b2565b60405180910390fd5b60148383610ffd9190614401565b111561103e576040517f08c379a0000000000000000000000000000000000000000000000000000000008152600401611035906144a3565b60405180910390fd5b82600d5461104c91906144c3565b341461108d576040517f08c379a000000000000000000000000000000000000000000000000000000000815260040161108490614569565b60405180910390fd5b82816110999190614589565b601060003373ffffffffffffffffffffffffffffffffffffffff1673ffffffffffffffffffffffffffffffffffffffff1681526020019081526020016000208190555060005b8381101561110f576110fc3382856110f79190614401565b61271c565b8080611107906145bd565b9150506110df565b50505050565b600061111f610cfa565b8210611160576040517f08c379a000000000000000000000000000000000000000000000000000000000815260040161115790614678565b60405180910390fd5b6008828154811061117457611173614698565b5b90600052602060002001549050919050565b600a60159054906101000a900460ff1681565b6111a1612321565b73ffffffffffffffffffffffffffffffffffffffff166111bf611598565b73ffffffffffffffffffffffffffffffffffffffff1614611215576040517f08c379a000000000000000000000000000000000000000000000000000000000815260040161120c90614248565b60405180910390fd5b80600e908051906020019061122b929190613418565b5050565b6000806002600084815260200190815260200160002060009054906101000a900473ffffffffffffffffffffffffffffffffffffffff169050600073ffffffffffffffffffffffffffffffffffffffff168173ffffffffffffffffffffffffffffffffffffffff1614156112d8576040517f08c379a00000000000000000000000000000000000000000000000000000000081526004016112cf90614739565b60405180910390fd5b80915050919050565b600a60169054906101000a900460ff1681565b600581565b60008073ffffffffffffffffffffffffffffffffffffffff168273ffffffffffffffffffffffffffffffffffffffff16141561136a576040517f08c379a0000000000000000000000000000000000000000000000000000000008152600401611361906147cb565b60405180910390fd5b600360008373ffffffffffffffffffffffffffffffffffffffff1673ffffffffffffffffffffffffffffffffffffffff168152602001908152602001600020549050919050565b6113b9612321565b73ffffffffffffffffffffffffffffffffffffffff166113d7611598565b73ffffffffffffffffffffffffffffffffffffffff161461142d576040517f08c379a000000000000000000000000000000000000000000000000000000000815260040161142490614248565b60405180910390fd5b611437600061273a565b565b60106020528060005260406000206000915090505481565b611459612321565b73ffffffffffffffffffffffffffffffffffffffff16611477611598565b73ffffffffffffffffffffffffffffffffffffffff16146114cd576040517f08c379a00000000000000000000000000000000000000000000000000000000081526004016114c490614248565b60405180910390fd5b80600a60166101000a81548160ff02191690831515021790555050565b606060006114f7836112f9565b905060008167ffffffffffffffff81111561151557611514613850565b5b6040519080825280602002602001820160405280156115435781602001602082028036833780820191505090505b50905060005b8281101561158d5761155b8582610d67565b82828151811061156e5761156d614698565b5b6020026020010181815250508080611585906145bd565b915050611549565b508092505050919050565b6000600a60009054906101000a900473ffffffffffffffffffffffffffffffffffffffff16905090565b600281565b6115cf612321565b73ffffffffffffffffffffffffffffffffffffffff166115ed611598565b73ffffffffffffffffffffffffffffffffffffffff1614611643576040517f08c379a000000000000000000000000000000000000000000000000000000000815260040161163a90614248565b60405180910390fd5b80600d8190555050565b60606001805461165c90613ef0565b80601f016020809104026020016040519081016040528092919081815260200182805461168890613ef0565b80156116d55780601f106116aa576101008083540402835291602001916116d5565b820191906000526020600020905b8154815290600101906020018083116116b857829003601f168201915b5050505050905090565b6116e7612321565b73ffffffffffffffffffffffffffffffffffffffff16611705611598565b73ffffffffffffffffffffffffffffffffffffffff161461175b576040517f08c379a000000000000000000000000000000000000000000000000000000000815260040161175290614248565b60405180910390fd5b600b548111156117a0576040517f08c379a00000000000000000000000000000000000000000000000000000000081526004016117979061485d565b60405180910390fd5b80600b60008282546117b29190614589565b9250508190555060006117c3610cfa565b905060005b828110156117f8576117e53382846117e09190614401565b61271c565b80806117f0906145bd565b9150506117c8565b505050565b600d5481565b61181561180e612321565b8383612800565b5050565b600c5481565b61183061182a612321565b836123e2565b61186f576040517f08c379a00000000000000000000000000000000000000000000000000000000081526004016118669061414a565b60405180910390fd5b61187b8484848461296d565b50505050565b611889612321565b73ffffffffffffffffffffffffffffffffffffffff166118a7611598565b73ffffffffffffffffffffffffffffffffffffffff16146118fd576040517f08c379a00000000000000000000000000000000000000000000000000000000081526004016118f490614248565b60405180910390fd5b8060008151811061191157611910614698565b5b6020026020010151600f60006101000a81548173ffffffffffffffffffffffffffffffffffffffff021916908373ffffffffffffffffffffffffffffffffffffffff16021790555050565b611964612321565b73ffffffffffffffffffffffffffffffffffffffff16611982611598565b73ffffffffffffffffffffffffffffffffffffffff16146119d8576040517f08c379a00000000000000000000000000000000000000000000000000000000081526004016119cf90614248565b60405180910390fd5b80600a60146101000a81548160ff02191690831515021790555050565b60006119ff610cfa565b9050600a60169054906101000a900460ff16611a50576040517f08c379a0000000000000000000000000000000000000000000000000000000008152600401611a47906148c9565b60405180910390fd5b600082118015611a61575060028211155b611aa0576040517f08c379a0000000000000000000000000000000000000000000000000000000008152600401611a979061495b565b60405180910390fd5b60148282611aae9190614401565b1115611aef576040517f08c379a0000000000000000000000000000000000000000000000000000000008152600401611ae6906144a3565b60405180910390fd5b81600d54611afd91906144c3565b3414611b3e576040517f08c379a0000000000000000000000000000000000000000000000000000000008152600401611b3590614569565b60405180910390fd5b60005b82811015611b7157611b5e338284611b599190614401565b61271c565b8080611b69906145bd565b915050611b41565b505050565b6060611b81826122b5565b611bc0576040517f08c379a0000000000000000000000000000000000000000000000000000000008152600401611bb7906149ed565b60405180910390fd5b6000611bca6129c9565b90506000815111611bea5760405180602001604052806000815250611c15565b80611bf484612a5b565b604051602001611c05929190614a49565b6040516020818303038152906040525b915050919050565b600e8054611c2a90613ef0565b80601f0160208091040260200160405190810160405280929190818152602001828054611c5690613ef0565b8015611ca35780601f10611c7857610100808354040283529160200191611ca3565b820191906000526020600020905b815481529060010190602001808311611c8657829003601f168201915b505050505081565b6000600560008473ffffffffffffffffffffffffffffffffffffffff1673ffffffffffffffffffffffffffffffffffffffff16815260200190815260200160002060008373ffffffffffffffffffffffffffffffffffffffff1673ffffffffffffffffffffffffffffffffffffffff16815260200190815260200160002060009054906101000a900460ff16905092915050565b611d47612321565b73ffffffffffffffffffffffffffffffffffffffff16611d65611598565b73ffffffffffffffffffffffffffffffffffffffff1614611dbb576040517f08c379a0000000000000000000000000000000000000000000000000000000008152600401611db290614248565b60405180910390fd5b60005b8251811015611e5257818181518110611dda57611dd9614698565b5b602002602001015160106000858481518110611df957611df8614698565b5b602002602001015173ffffffffffffffffffffffffffffffffffffffff1673ffffffffffffffffffffffffffffffffffffffff168152602001908152602001600020819055508080611e4a906145bd565b915050611dbe565b505050565b611e5f612321565b73ffffffffffffffffffffffffffffffffffffffff16611e7d611598565b73ffffffffffffffffffffffffffffffffffffffff1614611ed3576040517f08c379a0000000000000000000000000000000000000000000000000000000008152600401611eca90614248565b60405180910390fd5b600073ffffffffffffffffffffffffffffffffffffffff168173ffffffffffffffffffffffffffffffffffffffff161415611f43576040517f08c379a0000000000000000000000000000000000000000000000000000000008152600401611f3a90614adf565b60405180910390fd5b611f4c8161273a565b50565b6000611f59610cfa565b9050600a60159054906101000a900460ff16611faa576040517f08c379a0000000000000000000000000000000000000000000000000000000008152600401611fa1906148c9565b60405180910390fd5b600082118015611fbb575060028211155b611ffa576040517f08c379a0000000000000000000000000000000000000000000000000000000008152600401611ff19061495b565b60405180910390fd5b600582826120089190614401565b1115612049576040517f08c379a0000000000000000000000000000000000000000000000000000000008152600401612040906144a3565b60405180910390fd5b81600d5461205791906144c3565b3414612098576040517f08c379a000000000000000000000000000000000000000000000000000000000815260040161208f90614569565b60405180910390fd5b60005b828110156120cb576120b83382846120b39190614401565b61271c565b80806120c3906145bd565b91505061209b565b505050565b6120d8612321565b73ffffffffffffffffffffffffffffffffffffffff166120f6611598565b73ffffffffffffffffffffffffffffffffffffffff161461214c576040517f08c379a000000000000000000000000000000000000000000000000000000000815260040161214390614248565b60405180910390fd5b600060648261215b9190614b2e565b9050600f60009054906101000a900473ffffffffffffffffffffffffffffffffffffffff1673ffffffffffffffffffffffffffffffffffffffff166108fc6064836121a691906144c3565b9081150290604051600060405180830381858888f193505050506121c957600080fd5b5050565b600b5481565b60007f80ac58cd000000000000000000000000000000000000000000000000000000007bffffffffffffffffffffffffffffffffffffffffffffffffffffffff1916827bffffffffffffffffffffffffffffffffffffffffffffffffffffffff1916148061229e57507f5b5e139f000000000000000000000000000000000000000000000000000000007bffffffffffffffffffffffffffffffffffffffffffffffffffffffff1916827bffffffffffffffffffffffffffffffffffffffffffffffffffffffff1916145b806122ae57506122ad82612bbc565b5b9050919050565b60008073ffffffffffffffffffffffffffffffffffffffff166002600084815260200190815260200160002060009054906101000a900473ffffffffffffffffffffffffffffffffffffffff1673ffffffffffffffffffffffffffffffffffffffff1614159050919050565b600033905090565b816004600083815260200190815260200160002060006101000a81548173ffffffffffffffffffffffffffffffffffffffff021916908373ffffffffffffffffffffffffffffffffffffffff160217905550808273ffffffffffffffffffffffffffffffffffffffff1661239c8361122f565b73ffffffffffffffffffffffffffffffffffffffff167f8c5be1e5ebec7d5bd14f71427d1e84f3dd0314c0f7b2291e5b200ac8c7c3b92560405160405180910390a45050565b60006123ed826122b5565b61242c576040517f08c379a000000000000000000000000000000000000000000000000000000000815260040161242390614bd1565b60405180910390fd5b60006124378361122f565b90508073ffffffffffffffffffffffffffffffffffffffff168473ffffffffffffffffffffffffffffffffffffffff1614806124a657508373ffffffffffffffffffffffffffffffffffffffff1661248e84610b37565b73ffffffffffffffffffffffffffffffffffffffff16145b806124b757506124b68185611cab565b5b91505092915050565b8273ffffffffffffffffffffffffffffffffffffffff166124e08261122f565b73ffffffffffffffffffffffffffffffffffffffff1614612536576040517f08c379a000000000000000000000000000000000000000000000000000000000815260040161252d90614c63565b60405180910390fd5b600073ffffffffffffffffffffffffffffffffffffffff168273ffffffffffffffffffffffffffffffffffffffff1614156125a6576040517f08c379a000000000000000000000000000000000000000000000000000000000815260040161259d90614cf5565b60405180910390fd5b6125b1838383612c26565b6125bc600082612329565b6001600360008573ffffffffffffffffffffffffffffffffffffffff1673ffffffffffffffffffffffffffffffffffffffff168152602001908152602001600020600082825461260c9190614589565b925050819055506001600360008473ffffffffffffffffffffffffffffffffffffffff1673ffffffffffffffffffffffffffffffffffffffff16815260200190815260200160002060008282546126639190614401565b92505081905550816002600083815260200190815260200160002060006101000a81548173ffffffffffffffffffffffffffffffffffffffff021916908373ffffffffffffffffffffffffffffffffffffffff160217905550808273ffffffffffffffffffffffffffffffffffffffff168473ffffffffffffffffffffffffffffffffffffffff167fddf252ad1be2c89b69c2b068fc378daa952ba7f163c4a11628f55a4df523b3ef60405160405180910390a4505050565b612736828260405180602001604052806000815250612d3a565b5050565b6000600a60009054906101000a900473ffffffffffffffffffffffffffffffffffffffff16905081600a60006101000a81548173ffffffffffffffffffffffffffffffffffffffff021916908373ffffffffffffffffffffffffffffffffffffffff1602179055508173ffffffffffffffffffffffffffffffffffffffff168173ffffffffffffffffffffffffffffffffffffffff167f8be0079c531659141344cd1fd0a4f28419497f9722a3daafe3b4186f6b6457e060405160405180910390a35050565b8173ffffffffffffffffffffffffffffffffffffffff168373ffffffffffffffffffffffffffffffffffffffff16141561286f576040517f08c379a000000000000000000000000000000000000000000000000000000000815260040161286690614d61565b60405180910390fd5b80600560008573ffffffffffffffffffffffffffffffffffffffff1673ffffffffffffffffffffffffffffffffffffffff16815260200190815260200160002060008473ffffffffffffffffffffffffffffffffffffffff1673ffffffffffffffffffffffffffffffffffffffff16815260200190815260200160002060006101000a81548160ff0219169083151502179055508173ffffffffffffffffffffffffffffffffffffffff168373ffffffffffffffffffffffffffffffffffffffff167f17307eab39ab6107e8899845ad3d59bd9653f200f220920489ca2b5937696c3183604051612960919061356f565b60405180910390a3505050565b6129788484846124c0565b61298484848484612d95565b6129c3576040517f08c379a00000000000000000000000000000000000000000000000000000000081526004016129ba90614df3565b60405180910390fd5b50505050565b6060600e80546129d890613ef0565b80601f0160208091040260200160405190810160405280929190818152602001828054612a0490613ef0565b8015612a515780601f10612a2657610100808354040283529160200191612a51565b820191906000526020600020905b815481529060010190602001808311612a3457829003601f168201915b5050505050905090565b60606000821415612aa3576040518060400160405280600181526020017f30000000000000000000000000000000000000000000000000000000000000008152509050612bb7565b600082905060005b60008214612ad5578080612abe906145bd565b915050600a82612ace9190614b2e565b9150612aab565b60008167ffffffffffffffff811115612af157612af0613850565b5b6040519080825280601f01601f191660200182016040528015612b235781602001600182028036833780820191505090505b5090505b60008514612bb057600182612b3c9190614589565b9150600a85612b4b9190614e13565b6030612b579190614401565b60f81b818381518110612b6d57612b6c614698565b5b60200101907effffffffffffffffffffffffffffffffffffffffffffffffffffffffffffff1916908160001a905350600a85612ba99190614b2e565b9450612b27565b8093505050505b919050565b60007f01ffc9a7000000000000000000000000000000000000000000000000000000007bffffffffffffffffffffffffffffffffffffffffffffffffffffffff1916827bffffffffffffffffffffffffffffffffffffffffffffffffffffffff1916149050919050565b612c31838383612f2c565b600073ffffffffffffffffffffffffffffffffffffffff168373ffffffffffffffffffffffffffffffffffffffff161415612c7457612c6f81612f31565b612cb3565b8173ffffffffffffffffffffffffffffffffffffffff168373ffffffffffffffffffffffffffffffffffffffff1614612cb257612cb18382612f7a565b5b5b600073ffffffffffffffffffffffffffffffffffffffff168273ffffffffffffffffffffffffffffffffffffffff161415612cf657612cf1816130e7565b612d35565b8273ffffffffffffffffffffffffffffffffffffffff168273ffffffffffffffffffffffffffffffffffffffff1614612d3457612d3382826131b8565b5b5b505050565b612d448383613237565b612d516000848484612d95565b612d90576040517f08c379a0000000000000000000000000000000000000000000000000000000008152600401612d8790614df3565b60405180910390fd5b505050565b6000612db68473ffffffffffffffffffffffffffffffffffffffff16613405565b15612f1f578373ffffffffffffffffffffffffffffffffffffffff1663150b7a02612ddf612321565b8786866040518563ffffffff1660e01b8152600401612e019493929190614e99565b602060405180830381600087803b158015612e1b57600080fd5b505af1925050508015612e4c57506040513d601f19601f82011682018060405250810190612e499190614efa565b60015b612ecf573d8060008114612e7c576040519150601f19603f3d011682016040523d82523d6000602084013e612e81565b606091505b50600081511415612ec7576040517f08c379a0000000000000000000000000000000000000000000000000000000008152600401612ebe90614df3565b60405180910390fd5b805181602001fd5b63150b7a0260e01b7bffffffffffffffffffffffffffffffffffffffffffffffffffffffff1916817bffffffffffffffffffffffffffffffffffffffffffffffffffffffff191614915050612f24565b600190505b949350505050565b505050565b6008805490506009600083815260200190815260200160002081905550600881908060018154018082558091505060019003906000526020600020016000909190919091505550565b60006001612f87846112f9565b612f919190614589565b9050600060076000848152602001908152602001600020549050818114613076576000600660008673ffffffffffffffffffffffffffffffffffffffff1673ffffffffffffffffffffffffffffffffffffffff168152602001908152602001600020600084815260200190815260200160002054905080600660008773ffffffffffffffffffffffffffffffffffffffff1673ffffffffffffffffffffffffffffffffffffffff168152602001908152602001600020600084815260200190815260200160002081905550816007600083815260200190815260200160002081905550505b6007600084815260200190815260200160002060009055600660008573ffffffffffffffffffffffffffffffffffffffff1673ffffffffffffffffffffffffffffffffffffffff16815260200190815260200160002060008381526020019081526020016000206000905550505050565b600060016008805490506130fb9190614589565b905060006009600084815260200190815260200160002054905060006008838154811061312b5761312a614698565b5b90600052602060002001549050806008838154811061314d5761314c614698565b5b90600052602060002001819055508160096000838152602001908152602001600020819055506009600085815260200190815260200160002060009055600880548061319c5761319b614f27565b5b6001900381819060005260206000200160009055905550505050565b60006131c3836112f9565b905081600660008573ffffffffffffffffffffffffffffffffffffffff1673ffffffffffffffffffffffffffffffffffffffff168152602001908152602001600020600083815260200190815260200160002081905550806007600084815260200190815260200160002081905550505050565b600073ffffffffffffffffffffffffffffffffffffffff168273ffffffffffffffffffffffffffffffffffffffff1614156132a7576040517f08c379a000000000000000000000000000000000000000000000000000000000815260040161329e90614fa2565b60405180910390fd5b6132b0816122b5565b156132f0576040517f08c379a00000000000000000000000000000000000000000000000000000000081526004016132e79061500e565b60405180910390fd5b6132fc60008383612c26565b6001600360008473ffffffffffffffffffffffffffffffffffffffff1673ffffffffffffffffffffffffffffffffffffffff168152602001908152602001600020600082825461334c9190614401565b92505081905550816002600083815260200190815260200160002060006101000a81548173ffffffffffffffffffffffffffffffffffffffff021916908373ffffffffffffffffffffffffffffffffffffffff160217905550808273ffffffffffffffffffffffffffffffffffffffff16600073ffffffffffffffffffffffffffffffffffffffff167fddf252ad1be2c89b69c2b068fc378daa952ba7f163c4a11628f55a4df523b3ef60405160405180910390a45050565b600080823b905060008111915050919050565b82805461342490613ef0565b90600052602060002090601f016020900481019282613446576000855561348d565b82601f1061345f57805160ff191683800117855561348d565b8280016001018555821561348d579182015b8281111561348c578251825591602001919060010190613471565b5b50905061349a919061349e565b5090565b5b808211156134b757600081600090555060010161349f565b5090565b6000604051905090565b600080fd5b600080fd5b60007fffffffff0000000000000000000000000000000000000000000000000000000082169050919050565b613504816134cf565b811461350f57600080fd5b50565b600081359050613521816134fb565b92915050565b60006020828403121561353d5761353c6134c5565b5b600061354b84828501613512565b91505092915050565b60008115159050919050565b61356981613554565b82525050565b60006020820190506135846000830184613560565b92915050565b600081519050919050565b600082825260208201905092915050565b60005b838110156135c45780820151818401526020810190506135a9565b838111156135d3576000848401525b50505050565b6000601f19601f8301169050919050565b60006135f58261358a565b6135ff8185613595565b935061360f8185602086016135a6565b613618816135d9565b840191505092915050565b6000602082019050818103600083015261363d81846135ea565b905092915050565b6000819050919050565b61365881613645565b811461366357600080fd5b50565b6000813590506136758161364f565b92915050565b600060208284031215613691576136906134c5565b5b600061369f84828501613666565b91505092915050565b600073ffffffffffffffffffffffffffffffffffffffff82169050919050565b60006136d3826136a8565b9050919050565b6136e3816136c8565b82525050565b60006020820190506136fe60008301846136da565b92915050565b61370d816136c8565b811461371857600080fd5b50565b60008135905061372a81613704565b92915050565b60008060408385031215613747576137466134c5565b5b60006137558582860161371b565b925050602061376685828601613666565b9150509250929050565b61377981613645565b82525050565b60006020820190506137946000830184613770565b92915050565b6000806000606084860312156137b3576137b26134c5565b5b60006137c18682870161371b565b93505060206137d28682870161371b565b92505060406137e386828701613666565b9150509250925092565b6137f681613554565b811461380157600080fd5b50565b600081359050613813816137ed565b92915050565b60006020828403121561382f5761382e6134c5565b5b600061383d84828501613804565b91505092915050565b600080fd5b600080fd5b7f4e487b7100000000000000000000000000000000000000000000000000000000600052604160045260246000fd5b613888826135d9565b810181811067ffffffffffffffff821117156138a7576138a6613850565b5b80604052505050565b60006138ba6134bb565b90506138c6828261387f565b919050565b600067ffffffffffffffff8211156138e6576138e5613850565b5b6138ef826135d9565b9050602081019050919050565b82818337600083830152505050565b600061391e613919846138cb565b6138b0565b90508281526020810184848401111561393a5761393961384b565b5b6139458482856138fc565b509392505050565b600082601f83011261396257613961613846565b5b813561397284826020860161390b565b91505092915050565b600060208284031215613991576139906134c5565b5b600082013567ffffffffffffffff8111156139af576139ae6134ca565b5b6139bb8482850161394d565b91505092915050565b6000602082840312156139da576139d96134c5565b5b60006139e88482850161371b565b91505092915050565b600081519050919050565b600082825260208201905092915050565b6000819050602082019050919050565b613a2681613645565b82525050565b6000613a388383613a1d565b60208301905092915050565b6000602082019050919050565b6000613a5c826139f1565b613a6681856139fc565b9350613a7183613a0d565b8060005b83811015613aa2578151613a898882613a2c565b9750613a9483613a44565b925050600181019050613a75565b5085935050505092915050565b60006020820190508181036000830152613ac98184613a51565b905092915050565b60008060408385031215613ae857613ae76134c5565b5b6000613af68582860161371b565b9250506020613b0785828601613804565b9150509250929050565b600067ffffffffffffffff821115613b2c57613b2b613850565b5b613b35826135d9565b9050602081019050919050565b6000613b55613b5084613b11565b6138b0565b905082815260208101848484011115613b7157613b7061384b565b5b613b7c8482856138fc565b509392505050565b600082601f830112613b9957613b98613846565b5b8135613ba9848260208601613b42565b91505092915050565b60008060008060808587031215613bcc57613bcb6134c5565b5b6000613bda8782880161371b565b9450506020613beb8782880161371b565b9350506040613bfc87828801613666565b925050606085013567ffffffffffffffff811115613c1d57613c1c6134ca565b5b613c2987828801613b84565b91505092959194509250565b600067ffffffffffffffff821115613c5057613c4f613850565b5b602082029050602081019050919050565b600080fd5b6000613c79613c7484613c35565b6138b0565b90508083825260208201905060208402830185811115613c9c57613c9b613c61565b5b835b81811015613cc55780613cb1888261371b565b845260208401935050602081019050613c9e565b5050509392505050565b600082601f830112613ce457613ce3613846565b5b8135613cf4848260208601613c66565b91505092915050565b600060208284031215613d1357613d126134c5565b5b600082013567ffffffffffffffff811115613d3157613d306134ca565b5b613d3d84828501613ccf565b91505092915050565b60008060408385031215613d5d57613d5c6134c5565b5b6000613d6b8582860161371b565b9250506020613d7c8582860161371b565b9150509250929050565b600067ffffffffffffffff821115613da157613da0613850565b5b602082029050602081019050919050565b6000613dc5613dc084613d86565b6138b0565b90508083825260208201905060208402830185811115613de857613de7613c61565b5b835b81811015613e115780613dfd8882613666565b845260208401935050602081019050613dea565b5050509392505050565b600082601f830112613e3057613e2f613846565b5b8135613e40848260208601613db2565b91505092915050565b60008060408385031215613e6057613e5f6134c5565b5b600083013567ffffffffffffffff811115613e7e57613e7d6134ca565b5b613e8a85828601613ccf565b925050602083013567ffffffffffffffff811115613eab57613eaa6134ca565b5b613eb785828601613e1b565b9150509250929050565b7f4e487b7100000000000000000000000000000000000000000000000000000000600052602260045260246000fd5b60006002820490506001821680613f0857607f821691505b60208210811415613f1c57613f1b613ec1565b5b50919050565b7f4552433732313a20617070726f76656420717565727920666f72206e6f6e657860008201527f697374656e7420746f6b656e0000000000000000000000000000000000000000602082015250565b6000613f7e602c83613595565b9150613f8982613f22565b604082019050919050565b60006020820190508181036000830152613fad81613f71565b9050919050565b7f4552433732313a20617070726f76616c20746f2063757272656e74206f776e6560008201527f7200000000000000000000000000000000000000000000000000000000000000602082015250565b6000614010602183613595565b915061401b82613fb4565b604082019050919050565b6000602082019050818103600083015261403f81614003565b9050919050565b7f4552433732313a20617070726f76652063616c6c6572206973206e6f74206f7760008201527f6e6572206e6f7220617070726f76656420666f7220616c6c0000000000000000602082015250565b60006140a2603883613595565b91506140ad82614046565b604082019050919050565b600060208201905081810360008301526140d181614095565b9050919050565b7f4552433732313a207472616e736665722063616c6c6572206973206e6f74206f60008201527f776e6572206e6f7220617070726f766564000000000000000000000000000000602082015250565b6000614134603183613595565b915061413f826140d8565b604082019050919050565b6000602082019050818103600083015261416381614127565b9050919050565b7f455243373231456e756d657261626c653a206f776e657220696e646578206f7560008201527f74206f6620626f756e6473000000000000000000000000000000000000000000602082015250565b60006141c6602b83613595565b91506141d18261416a565b604082019050919050565b600060208201905081810360008301526141f5816141b9565b9050919050565b7f4f776e61626c653a2063616c6c6572206973206e6f7420746865206f776e6572600082015250565b6000614232602083613595565b915061423d826141fc565b602082019050919050565b6000602082019050818103600083015261426181614225565b9050919050565b7f57686974656c6973742069736e27742061637469766500000000000000000000600082015250565b600061429e601683613595565b91506142a982614268565b602082019050919050565b600060208201905081810360008301526142cd81614291565b9050919050565b7f4e6f20746f6b656e7320726573657276656420666f7220796f7572206164647260008201527f6573730000000000000000000000000000000000000000000000000000000000602082015250565b6000614330602383613595565b915061433b826142d4565b604082019050919050565b6000602082019050818103600083015261435f81614323565b9050919050565b7f43616e2774206d696e74206d6f7265207468616e207265736572766564000000600082015250565b600061439c601d83613595565b91506143a782614366565b602082019050919050565b600060208201905081810360008301526143cb8161438f565b9050919050565b7f4e487b7100000000000000000000000000000000000000000000000000000000600052601160045260246000fd5b600061440c82613645565b915061441783613645565b9250827fffffffffffffffffffffffffffffffffffffffffffffffffffffffffffffffff0382111561444c5761444b6143d2565b5b828201905092915050565b7f43616e2774206d696e74206d6f7265207468616e206d617820737570706c7900600082015250565b600061448d601f83613595565b915061449882614457565b602082019050919050565b600060208201905081810360008301526144bc81614480565b9050919050565b60006144ce82613645565b91506144d983613645565b9250817fffffffffffffffffffffffffffffffffffffffffffffffffffffffffffffffff0483118215151615614512576145116143d2565b5b828202905092915050565b7f57726f6e6720616d6f756e74206f6620574554482073656e7400000000000000600082015250565b6000614553601983613595565b915061455e8261451d565b602082019050919050565b6000602082019050818103600083015261458281614546565b9050919050565b600061459482613645565b915061459f83613645565b9250828210156145b2576145b16143d2565b5b828203905092915050565b60006145c882613645565b91507fffffffffffffffffffffffffffffffffffffffffffffffffffffffffffffffff8214156145fb576145fa6143d2565b5b600182019050919050565b7f455243373231456e756d657261626c653a20676c6f62616c20696e646578206f60008201527f7574206f6620626f756e64730000000000000000000000000000000000000000602082015250565b6000614662602c83613595565b915061466d82614606565b604082019050919050565b6000602082019050818103600083015261469181614655565b9050919050565b7f4e487b7100000000000000000000000000000000000000000000000000000000600052603260045260246000fd5b7f4552433732313a206f776e657220717565727920666f72206e6f6e657869737460008201527f656e7420746f6b656e0000000000000000000000000000000000000000000000602082015250565b6000614723602983613595565b915061472e826146c7565b604082019050919050565b6000602082019050818103600083015261475281614716565b9050919050565b7f4552433732313a2062616c616e636520717565727920666f7220746865207a6560008201527f726f206164647265737300000000000000000000000000000000000000000000602082015250565b60006147b5602a83613595565b91506147c082614759565b604082019050919050565b600060208201905081810360008301526147e4816147a8565b9050919050565b7f43616e27742072657365727665206d6f7265207468616e2073657420616d6f7560008201527f6e74000000000000000000000000000000000000000000000000000000000000602082015250565b6000614847602283613595565b9150614852826147eb565b604082019050919050565b600060208201905081810360008301526148768161483a565b9050919050565b7f53616c652069736e277420616374697665000000000000000000000000000000600082015250565b60006148b3601183613595565b91506148be8261487d565b602082019050919050565b600060208201905081810360008301526148e2816148a6565b9050919050565b7f43616e206f6e6c79206d696e74206265747765656e203120616e64203220746f60008201527f6b656e73206174206f6e63650000000000000000000000000000000000000000602082015250565b6000614945602c83613595565b9150614950826148e9565b604082019050919050565b6000602082019050818103600083015261497481614938565b9050919050565b7f4552433732314d657461646174613a2055524920717565727920666f72206e6f60008201527f6e6578697374656e7420746f6b656e0000000000000000000000000000000000602082015250565b60006149d7602f83613595565b91506149e28261497b565b604082019050919050565b60006020820190508181036000830152614a06816149ca565b9050919050565b600081905092915050565b6000614a238261358a565b614a2d8185614a0d565b9350614a3d8185602086016135a6565b80840191505092915050565b6000614a558285614a18565b9150614a618284614a18565b91508190509392505050565b7f4f776e61626c653a206e6577206f776e657220697320746865207a65726f206160008201527f6464726573730000000000000000000000000000000000000000000000000000602082015250565b6000614ac9602683613595565b9150614ad482614a6d565b604082019050919050565b60006020820190508181036000830152614af881614abc565b9050919050565b7f4e487b7100000000000000000000000000000000000000000000000000000000600052601260045260246000fd5b6000614b3982613645565b9150614b4483613645565b925082614b5457614b53614aff565b5b828204905092915050565b7f4552433732313a206f70657261746f7220717565727920666f72206e6f6e657860008201527f697374656e7420746f6b656e0000000000000000000000000000000000000000602082015250565b6000614bbb602c83613595565b9150614bc682614b5f565b604082019050919050565b60006020820190508181036000830152614bea81614bae565b9050919050565b7f4552433732313a207472616e73666572206f6620746f6b656e2074686174206960008201527f73206e6f74206f776e0000000000000000000000000000000000000000000000602082015250565b6000614c4d602983613595565b9150614c5882614bf1565b604082019050919050565b60006020820190508181036000830152614c7c81614c40565b9050919050565b7f4552433732313a207472616e7366657220746f20746865207a65726f2061646460008201527f7265737300000000000000000000000000000000000000000000000000000000602082015250565b6000614cdf602483613595565b9150614cea82614c83565b604082019050919050565b60006020820190508181036000830152614d0e81614cd2565b9050919050565b7f4552433732313a20617070726f766520746f2063616c6c657200000000000000600082015250565b6000614d4b601983613595565b9150614d5682614d15565b602082019050919050565b60006020820190508181036000830152614d7a81614d3e565b9050919050565b7f4552433732313a207472616e7366657220746f206e6f6e20455243373231526560008201527f63656976657220696d706c656d656e7465720000000000000000000000000000602082015250565b6000614ddd603283613595565b9150614de882614d81565b604082019050919050565b60006020820190508181036000830152614e0c81614dd0565b9050919050565b6000614e1e82613645565b9150614e2983613645565b925082614e3957614e38614aff565b5b828206905092915050565b600081519050919050565b600082825260208201905092915050565b6000614e6b82614e44565b614e758185614e4f565b9350614e858185602086016135a6565b614e8e816135d9565b840191505092915050565b6000608082019050614eae60008301876136da565b614ebb60208301866136da565b614ec86040830185613770565b8181036060830152614eda8184614e60565b905095945050505050565b600081519050614ef4816134fb565b92915050565b600060208284031215614f1057614f0f6134c5565b5b6000614f1e84828501614ee5565b91505092915050565b7f4e487b7100000000000000000000000000000000000000000000000000000000600052603160045260246000fd5b7f4552433732313a206d696e7420746f20746865207a65726f2061646472657373600082015250565b6000614f8c602083613595565b9150614f9782614f56565b602082019050919050565b60006020820190508181036000830152614fbb81614f7f565b9050919050565b7f4552433732313a20746f6b656e20616c7265616479206d696e74656400000000600082015250565b6000614ff8601c83613595565b915061500382614fc2565b602082019050919050565b6000602082019050818103600083015261502781614feb565b905091905056fea264697066735822122041d63bd387a098b99e8671c0eea8c821122ecabf5aef49f61f570c4498187e6064736f6c63430008090033",
  "immutableReferences": {},
  "source": "// SPDX-License-Identifier: MIT\npragma solidity ^0.8.9;\n\nimport '@openzeppelin/contracts/token/ERC721/extensions/ERC721Enumerable.sol';\nimport '@openzeppelin/contracts/access/Ownable.sol';\n\ncontract LittleHorse is ERC721Enumerable, Ownable {  \n    using Address for address;\n    \n    // Starting and stopping sale, presale and whitelist\n    bool public whitelistActive = false;\n    bool public presaleActive = false;\n    bool public saleActive = false;\n\n    // Reserved for the team, customs, giveaways, collabs and so on.\n    uint256 public reserved = 5;\n\n    // Price of each token\n    uint256 public initial_price = 0.002 ether;\n    uint256 public price;\n\n    // Maximum limit of tokens that can ever exist\n    uint256 public constant MAX_SUPPLY = 20;\n    uint256 public constant MAX_PRESALE_SUPPLY = 5;\n    uint256 public constant MAX_MINT_PER_TX = 2;\n\n    // The base link that leads to the image / video of the token\n    string public baseTokenURI = \"http://159.65.232.27/\";\n\n    // Team addresses for withdrawals\n    address public a1;\n\n    // List of addresses that have a number of reserved tokens for whitelist\n    mapping (address => uint256) public whitelistReserved;\n\n    constructor () ERC721 (\"Little Horse V2\", \"LILHv\") {\n        price = initial_price;\n    }\n\n    // Override so the openzeppelin tokenURI() method will use this method to create the full tokenURI instead\n    function _baseURI() internal view virtual override returns (string memory) {\n        return baseTokenURI;\n    }\n\n    // See which address owns which tokens\n    function tokensOfOwner(address addr) public view returns(uint256[] memory) {\n        uint256 tokenCount = balanceOf(addr);\n        uint256[] memory tokensId = new uint256[](tokenCount);\n        for(uint256 i; i < tokenCount; i++){\n            tokensId[i] = tokenOfOwnerByIndex(addr, i);\n        }\n        return tokensId;\n    }\n\n    // Exclusive whitelist minting\n    function mintWhitelist(uint256 _amount) public payable {\n        uint256 supply = totalSupply();\n        uint256 reservedAmt = whitelistReserved[msg.sender];\n        require( whitelistActive,                   \"Whitelist isn't active\" );\n        require( reservedAmt > 0,                   \"No tokens reserved for your address\" );\n        require( _amount <= reservedAmt,            \"Can't mint more than reserved\" );\n        require( supply + _amount <= MAX_SUPPLY,    \"Can't mint more than max supply\" );\n        require( msg.value == price * _amount,      \"Wrong amount of WETH sent\" );\n        whitelistReserved[msg.sender] = reservedAmt - _amount;\n        for(uint256 i; i < _amount; i++){\n            _safeMint( msg.sender, supply + i );\n        }\n    }\n\n    // Presale minting\n    function mintPresale(uint256 _amount) public payable {\n        uint256 supply = totalSupply();\n        require( presaleActive,                             \"Sale isn't active\" );\n        require( _amount > 0 && _amount <= MAX_MINT_PER_TX, \"Can only mint between 1 and 2 tokens at once\" );\n        require( supply + _amount <= MAX_PRESALE_SUPPLY,    \"Can't mint more than max supply\" );\n        require( msg.value == price * _amount,              \"Wrong amount of WETH sent\" );\n        for(uint256 i; i < _amount; i++){\n            _safeMint( msg.sender, supply + i );\n        }\n    }\n\n    // Standard mint function\n    function mintToken(uint256 _amount) public payable {\n        uint256 supply = totalSupply();\n        require( saleActive,                                \"Sale isn't active\" );\n        require( _amount > 0 && _amount <= MAX_MINT_PER_TX, \"Can only mint between 1 and 2 tokens at once\" );\n        require( supply + _amount <= MAX_SUPPLY,            \"Can't mint more than max supply\" );\n        require( msg.value == price * _amount,              \"Wrong amount of WETH sent\" );\n        for(uint256 i; i < _amount; i++){\n            _safeMint( msg.sender, supply + i );\n        }\n    }\n\n    // Admin minting function to reserve tokens for the team, collabs, customs and giveaways\n    function mintReserved(uint256 _amount) public onlyOwner {\n        // Limited to a publicly set amount\n        require( _amount <= reserved, \"Can't reserve more than set amount\" );\n        reserved -= _amount;\n        uint256 supply = totalSupply();\n        for(uint256 i; i < _amount; i++){\n            _safeMint( msg.sender, supply + i );\n        }\n    }\n    \n    // Edit reserved whitelist spots\n    function editWhitelistReserved(address[] memory _a, uint256[] memory _amount) public onlyOwner {\n        for(uint256 i; i < _a.length; i++){\n            whitelistReserved[_a[i]] = _amount[i];\n        }\n    }\n\n    // Start and stop whitelist\n    function setWhitelistActive(bool val) public onlyOwner {\n        whitelistActive = val;\n    }\n\n    // Start and stop presale\n    function setPresaleActive(bool val) public onlyOwner {\n        presaleActive = val;\n    }\n\n    // Start and stop sale\n    function setSaleActive(bool val) public onlyOwner {\n        saleActive = val;\n    }\n\n    // Set new baseURI\n    function setBaseURI(string memory baseURI) public onlyOwner {\n        baseTokenURI = baseURI;\n    }\n\n    // Set a different price in case ETH changes drastically\n    function setPrice(uint256 newPrice) public onlyOwner {\n        price = newPrice;\n    }\n\n    // Set team addresses\n    function setAddresses(address[] memory _a) public onlyOwner {\n        a1 = _a[0];\n    }\n\n    // Withdraw funds from contract for the team\n    function withdrawTeam(uint256 amount) public payable onlyOwner {\n        uint256 percent = amount / 100;\n        require(payable(a1).send(percent * 100));\n    }\n}\n",
  "sourcePath": "C:\\Users\\mrqui\\Desktop\\Smart_Contract_TestB\\contracts\\LittleHorse.sol",
  "compiler": {
    "name": "solc",
    "version": "0.8.9+commit.e5eed63a.Emscripten.clang"
  },
  "schemaVersion": "3.4.4",
  "updatedAt": "2022-01-14T05:14:52.843Z",
  "networkType": "ethereum",
  "devdoc": {
    "kind": "dev",
    "methods": {
      "approve(address,uint256)": {
        "details": "See {IERC721-approve}."
      },
      "balanceOf(address)": {
        "details": "See {IERC721-balanceOf}."
      },
      "getApproved(uint256)": {
        "details": "See {IERC721-getApproved}."
      },
      "isApprovedForAll(address,address)": {
        "details": "See {IERC721-isApprovedForAll}."
      },
      "name()": {
        "details": "See {IERC721Metadata-name}."
      },
      "owner()": {
        "details": "Returns the address of the current owner."
      },
      "ownerOf(uint256)": {
        "details": "See {IERC721-ownerOf}."
      },
      "renounceOwnership()": {
        "details": "Leaves the contract without owner. It will not be possible to call `onlyOwner` functions anymore. Can only be called by the current owner. NOTE: Renouncing ownership will leave the contract without an owner, thereby removing any functionality that is only available to the owner."
      },
      "safeTransferFrom(address,address,uint256)": {
        "details": "See {IERC721-safeTransferFrom}."
      },
      "safeTransferFrom(address,address,uint256,bytes)": {
        "details": "See {IERC721-safeTransferFrom}."
      },
      "setApprovalForAll(address,bool)": {
        "details": "See {IERC721-setApprovalForAll}."
      },
      "supportsInterface(bytes4)": {
        "details": "See {IERC165-supportsInterface}."
      },
      "symbol()": {
        "details": "See {IERC721Metadata-symbol}."
      },
      "tokenByIndex(uint256)": {
        "details": "See {IERC721Enumerable-tokenByIndex}."
      },
      "tokenOfOwnerByIndex(address,uint256)": {
        "details": "See {IERC721Enumerable-tokenOfOwnerByIndex}."
      },
      "tokenURI(uint256)": {
        "details": "See {IERC721Metadata-tokenURI}."
      },
      "totalSupply()": {
        "details": "See {IERC721Enumerable-totalSupply}."
      },
      "transferFrom(address,address,uint256)": {
        "details": "See {IERC721-transferFrom}."
      },
      "transferOwnership(address)": {
        "details": "Transfers ownership of the contract to a new account (`newOwner`). Can only be called by the current owner."
      }
    },
    "version": 1
  },
  "userdoc": {
    "kind": "user",
    "methods": {},
    "version": 1
  }
}